:400000000080002011000000710800007108000008B5044B1A6803F53F5302331A6000F02FFC00BFFA46004010B5054C237833B9044B13B10448AFF300800123237010BD5A
:400040000082FF1F0000000078130000084B10B51BB108490848AFF300800848036803B910BD074B002BFBD0BDE81040184700BF000000000482FF1F78130000C880FF1F7A
:400080000000000008B501F0A3F800F01FF908BD08B50122024B1A7001F016F908BD00BF1C82FF1F38B5054600240EE0002000F0DDF94FF4167000F0AFFF012000F0D6F9BC
:4000C0004FF4FA7000F0A8FF0134AC42EEDB38BD08B5012000F032F9012000F045F9012000F078F9002000F08BF9012000F0BEF9002000F0E7F9002000F052FA08BD00BFE5
:4001000008B5FFF7E5FF002000F04AFA012000F061F9032000F074F9002000F0A7F9002000F0D0F9042000F01FF9012000F006F908BD00BF08B5FFF7CBFF012000F0FEF81C
:40014000032000F011F9002000F044F9002000F057F9012000F08AF9002000F0B3F9032000F01EFA08BD00BF08B5FFF7B1FF032000F0FAF8022000F02DF9032000F010FAF9
:40018000002000F0F1F8002000F0D8F8002000F099F908BD08B5FFF79BFF012000F000FA032000F08FF9012000F02AF9002000F0C5F8022000F0D8F80420FFF773FF03207A
:4001C00000F054F908BD00BF08B5FFF781FF012000F000F9032000F0E3F9032000F0C4F8012000F0ABF8032000F06CF908BD00BF08B502E00A2000F00FFF044B1B7813F0E7
:40020000FF0FF7D00022014B1A7008BD1C82FF1F08B562B6FFF75CFF01F020F81A4800F0AFFF1A4801F042F84FF47A7000F0F4FE00F0F0FB00F06CFC00F066FD00F0E6FC4D
:4002400000F0E0FD00F06EFF00F0D8FE00F058FEFFF7CEFFFFF79EFFFFF7CAFFFFF784FFFFF7C6FFFFF74CFFFFF7C2FFFFF762FFFFF7BEFFFFF7A8FFFFF7BAFFFFF728FF94
:40028000FFF7B6FFE6E700BF8500000091000000C0EB0010C301054880FB03201844DB17C3EBE01000F58C7080B27047B7600BB610B504460846FFF7EBFF04EB4404A300D2
:4002C000014A1344D88010BDCC80FF1F38B500242FE02346610021448A0017490A44958811896818D288904207DA04EB44008200114802442944918010E0681A824207DA19
:4003000004EB440082000C480244691A918005E004EB44008100084801448A8006485900CD18AA00154602444359908898470134E4B20F2CCDD938BDCC80FF1F08B5012847
:4003400008D010B102280AD008BD5A210020FFF7AFFF08BD87210020FFF7AAFF08BDB4210020FFF7A5FF08BD08B5042830D8DFE800F0150C031E27008C210120FFF798FF2B
:4003800078210220FFF794FF08BD5A210120FFF78FFF64210220FFF78BFF08BD50210120FFF786FF46210220FFF782FF08BD3C210120FFF77DFF82210220FFF779FF08BD6E
:4003C000A0210120FFF774FF1E210220FFF770FF08BD00BF08B5012808D010B102280AD008BD46210320FFF763FF08BD69210320FFF75EFF08BD14210320FFF759FF08BD49
:4004000008B5042830D8DFE800F0030C151E270050210420FFF74CFF5A210520FFF748FF08BD3C210420FFF743FF5A210520FFF73FFF08BD50210420FFF73AFF782105205F
:40044000FFF736FF08BD3C210520FFF731FF8C210420FFF72DFF08BD78210520FFF728FF3C210420FFF724FF08BD00BF08B5032826D8DFE800F0020B141D05210B20FFF711
:4004800017FF3C210A20FFF713FF08BD50210B20FFF70EFF3C210A20FFF70AFF08BD50210B20FFF705FF1E210A20FFF701FF08BD50210B20FFF7FCFE64210A20FFF7F8FE07
:4004C00008BD00BF08B5052869D8DFE800F003142536475814210720FFF7EAFE50210620FFF7E6FE5A210920FFF7E2FE50210820FFF7DEFE08BD00210720FFF7D9FE5021AA
:400500000620FFF7D5FE64210920FFF7D1FEAA210820FFF7CDFE08BD6E210720FFF7C8FEB4210620FFF7C4FE5A210920FFF7C0FE50210820FFF7BCFE08BD00210720FFF717
:40054000B7FE32210620FFF7B3FE46210920FFF7AFFE1E210820FFF7ABFE08BD78210720FFF7A6FE64210620FFF7A2FE82210920FFF79EFE78210820FFF79AFE08BD6E210C
:400580000720FFF795FEB4210620FFF791FE5A210920FFF78DFE50210820FFF789FE08BD08B5032846D8DFE800F0021324355A210C20FFF77DFE5A210D20FFF779FE5A2138
:4005C0000E20FFF775FE5A210F20FFF771FE08BD2D210C20FFF76CFE87210D20FFF768FE5A210E20FFF764FE5A210F20FFF760FE08BD5A210C20FFF75BFE5A210D20FFF72D
:4006000057FE87210E20FFF753FE2D210F20FFF74FFE08BD2D210C20FFF74AFE87210D20FFF746FE87210E20FFF742FE2D210F20FFF73EFE08BD00BFFEE700BFF0B4002253
:40064000174611E050F82760F3B226F0FF0608E001EB420511F812406D78A5550132013BDBB2002BF4D10137222FEBD9F0BC7047064B1B78DBB203F00701054A11701B094C
:40068000013213704422034B1A707047CF0100496E5800407658004008B50A46002100F062FE08BD38B51722274B1A80182202331A7047F22F5202331A80192502331D706B
:4006C000022203F27A231A7008224FF040231A70032103F5007319701C4B1B78DBB21C490B701C4B1A8041F25122023B1A8000240CE0194B1B7803F0010343EA440404F000
:4007000003044FF4F07000F0E7FD013D0DB1032CEFD115B90320FFF78FFF104B4FF480721A8007221A7000220D490A704820023108701A700222033B1A700A4A137843F071
:400740000303137038BD00BF8040004008010049A146004022420040254200400440004006400040A243004008B500F0F1FD08BD38B572B62D4A137843F0040313700024F1
:400780000CE02B4D630019194A0011462A44084691882858FFF780FF0134E4B2082CF0D924494FF09040FFF749FF234A137843F0020313701032137843F0020313701F4CAD
:4007C000237843F040032370A2F58632513A137843F010031370082219491A48FFF7C4FF082219491948FFF7BFFF082218491948FFF7BAFF0A2218491848FFF7B5FF184A4B
:40080000137843F008031370164D61232B70FFF749FF81232B700122134B1A70FFF728FF0E2221461148FFF79FFF38BDE84600407C1300008C00004803500140A043004044
:40084000B8070048C2510040C007004812510040C807004822510040D007004830510040224300400048004004000840B043004008B500F041FD03680C2B00D1FEE7FEE7EE
:4008800008B5104E104D16E029686B68AC68002204E051F8040B43F8040B0432A242F8D1E868002203E0002143F8041B04328242F9D11035013E002EE6D100F023FDFFF7C4
:4008C000A7FCFEE701000000D813000008B5104A104B1A60104A136843F40073136000230AE0032B03D80D4A52F8231000E00C490C4A42F8231001332F2BF2D90A4B1A7884
:400900000A4B1A70074A0A4B1A60FFF731FF08BD0004FA050CED00E014ED00E000000000710800000080FF1FBC760040C080FF1F08ED00E0024A137843F08003137070478D
:400940007B640040014B1880704700BF14680040014B1880704700BF94680040014B1880704700BF54680040014B1880704700BF74680040014B1870704700BF8B64004067
:40098000014B1878704700BF6B640040014B188880B27047B468004008B501E0FFF7F6FFFFF7EEFF10F0100FF8D108BD10B5174A137803F0C00343F0090313701F32137887
:4009C00043F001031370124C237843F00103237044F62060FFF7B6FF44F62060FFF7B8FF4FF4FA60FFF7BAFF4FF4FA60FFF7BCFF0020FFF7BFFF00F077FC237843F01003FC
:400A0000237000F075FCFFF7C7FF10BD7B6400409B64004008B5054B1B7823B9FFF7C6FF0122024B1A70FFF785FF08BD1D82FF1F024A137843F08003137070477D640040C6
:400A4000014B1880704700BF18680040014B1880704700BF98680040014B1880704700BF58680040014B1880704700BF78680040014B1870704700BF8D640040014B187897
:400A8000704700BF6D640040014B188880B27047B868004008B501E0FFF7F6FFFFF7EEFF10F0100FF8D108BD10B5174A137803F0C00343F0090313701F32137843F0010325
:400AC0001370124C237843F00103237044F62060FFF7B6FF44F62060FFF7B8FF4FF4FA60FFF7BAFF4FF4FA60FFF7BCFF0020FFF7BFFF00F0F9FB237843F01003237000F02E
:400B0000F7FBFFF7C7FF10BD7D6400409D64004008B5054B1B7823B9FFF7C6FF0122024B1A70FFF785FF08BD1E82FF1F024A137843F08003137070477B650040014B1880DF
:400B4000704700BF146A0040014B1880704700BF946A0040014B1880704700BF546A0040014B1880704700BF746A0040014B1870704700BF8B650040014B1878704700BF0D
:400B80006B650040014B188880B27047B46A004008B501E0FFF7F6FFFFF7EEFF10F0100FF8D108BD10B5174A137803F0C00343F0090313701F32137843F001031370124CBC
:400BC000237843F00103237044F62060FFF7B6FF44F62060FFF7B8FF4FF4FA60FFF7BAFF4FF4FA60FFF7BCFF0020FFF7BFFF00F07BFB237843F01003237000F079FBFFF722
:400C0000C7FF10BD7B6500409B65004008B5054B1B7823B9FFF7C6FF0122024B1A70FFF785FF08BD1F82FF1F024A137843F08003137070477F640040014B1880704700BF4E
:400C40001C680040014B1880704700BF9C680040014B1880704700BF5C680040014B1880704700BF7C680040014B1870704700BF8F640040014B1878704700BF6F64004054
:400C8000014B188880B27047BC68004008B501E0FFF7F6FFFFF7EEFF10F0100FF8D108BD10B5174A137803F0C00343F0090313701F32137843F001031370124C237843F0F7
:400CC0000103237044F62060FFF7B6FF44F62060FFF7B8FF4FF4FA60FFF7BAFF4FF4FA60FFF7BCFF0020FFF7BFFF00F0FDFA237843F01003237000F0FBFAFFF7C7FF10BD5A
:400D00007F6400409F64004008B5054B1B7823B9FFF7C6FF0122024B1A70FFF785FF08BD2082FF1F024A137843F080031370704779640040014B1880704700BF1068004027
:400D4000014B1880704700BF90680040014B1880704700BF50680040014B1880704700BF70680040014B1870704700BF89640040014B1878704700BF69640040014B18885B
:400D800080B27047B068004008B501E0FFF7F6FFFFF7EEFF10F0100FF8D108BD10B5174A137803F0C00343F0090313701F32137843F001031370124C237843F00103237057
:400DC00044F62060FFF7B6FF44F62060FFF7B8FF4FF4FA60FFF7BAFF4FF4FA60FFF7BCFF0020FFF7BFFF00F07FFA237843F01003237000F07DFAFFF7C7FF10BD79640040CF
:400E00009964004008B5054B1B7823B9FFF7C6FF0122024B1A70FFF785FF08BD2182FF1F024A137843F080031370704775650040014B1880704700BF086A0040014B188073
:400E4000704700BF886A0040014B1880704700BF486A0040014B1880704700BF686A0040014B1870704700BF85650040014B1878704700BF65650040014B188880B270476D
:400E8000A86A004008B501E0FFF7F6FFFFF7EEFF10F0100FF8D108BD10B5174A137803F0C00343F0090313701F32137843F001031370124C237843F00103237044F620608B
:400EC000FFF7B6FF44F62060FFF7B8FF4FF4FA60FFF7BAFF4FF4FA60FFF7BCFF0020FFF7BFFF00F001FA237843F01003237000F0FFF9FFF7C7FF10BD75650040956500404E
:400F000008B5054B1B7823B9FFF7C6FF0122024B1A70FFF785FF08BD2282FF1F024A137843F080031370704777650040014B1880704700BF0C6A0040014B1880704700BF32
:400F40008C6A0040014B1880704700BF4C6A0040014B1880704700BF6C6A0040014B1870704700BF87650040014B1878704700BF67650040014B188880B27047AC6A00407C
:400F800008B501E0FFF7F6FFFFF7EEFF10F0100FF8D108BD10B5174A137803F0C00343F0090313701F32137843F001031370124C237843F00103237044F62060FFF7B6FF31
:400FC00044F62060FFF7B8FF4FF4FA60FFF7BAFF4FF4FA60FFF7BCFF0020FFF7BFFF00F083F9237843F01003237000F081F9FFF7C7FF10BD776500409765004008B5054BE4
:401000001B7823B9FFF7C6FF0122024B1A70FFF785FF08BD2382FF1F10B5044605E0084B186800F059F9A4F50044B4F5004FF6D8034B586800FB04F000F04EF910BD00BF1E
:401040008C81FF1F024A137843F080031370704773640040014B1880704700BF04680040014B1880704700BF84680040014B1880704700BF44680040014B1880704700BF3B
:4010800064680040014B1870704700BF83640040014B1878704700BF63640040014B188880B27047A468004008B501E0FFF7F6FFFFF7EEFF10F0100FF8D108BD10B5174AFA
:4010C000137803F0C00343F0090313701F32137843F001031370124C237843F00103237044F62060FFF7B6FF44F62060FFF7B8FF4FF4FA60FFF7BAFF4FF4FA60FFF7BCFF2E
:401100000020FFF7BFFF00F0EFF8237843F01003237000F0EDF8FFF7C7FF10BD736400409364004008B5054B1B7823B9FFF7C6FF0122024B1A70FFF785FF08BD2482FF1FB0
:40114000024B1B68C3F88400704700BF08ED00E04001C0B2014B1870704700BF11E400E04FF40032014B1A60704700BF00E100E04FF40032014B1A60704700BF80E100E0DF
:4011800010B50446FFF7F4FF2046FFF7D9FF0720FFF7DEFFFFF7E4FF10BD00BF084A137843F0010313701032137843F00103137002F64D32137843F001031370704700BF54
:4011C000A3430040014B1870704700BF034F0040014B1878704700BF034F0040014B1880704700BF044F0040014B1880704700BF064F004008B5164A137803F0010313700B
:401200000232137803F0FC031370124B1A7802F0CF021A701A7842F030021A701A7802F0F0021A701A7842F00F021A700A4A137843F00103137041F28730FFF7CFFF41F2E5
:401240008730FFF7D1FF0820FFF7BCFF08BD00BF004F00400B4F0040014F004008B5054B1B7823B9FFF7C6FF0122024B1A70FFF795FF08BD2582FF1F014B1B681864704794
:4012800008ED00E04001C0B2014B1870704700BF00E400E00122014B1A60704700E100E00122014B1A60704780E100E010B50446FFF7F6FF2046FFF7DFFF0720FFF7E2FF24
:4012C000FFF7E8FF10BD00BF0122014B1A60704780E200E0000000000230800803D000BF01380046FCD17047EFF3108072B6704780F31088704700BF014B1868704700BF40
:40130000FC81FF1F0E4B70B51E460E4C0025E41AA410A54204D056F8253098470135F8E700F048F8084B094C1E46E41AA4100025A54204D056F8253098470135F8E770BD1B
:40134000C0130000C0130000C0130000C813000010B5431E0A44914204D011F8014B03F8014FF8E710BD03460244934202D003F8011BFAE77047000000000000004F00403E
:401380000C00005100401000405100403000F0510040100000000140001000140140000800400140000A004C014000020050014020004300F8B500BFF8BC08BC9E467047B3
:4013C0004D000000CD080000F8B500BFF8BC08BC9E46704729000000E8130000C880FF1F380100002800000000000000450F0000D804D80403000000490E0000D804D80443
:4014000005000000550E0000D804D80405000000510F0000D804D804070000006D100000D804D8040500000079100000D804D80405000000550B0000D804D80405000000CB
:40144000610B0000D804D80405000000510C0000D804D804050000005D0C0000D804D804050000004D0D0000D804D80405000000590D0000D804D8040A0000005D0900005E
:40148000D804D8040500000069090000D804D80405000000590A0000D804D80405000000650A0000D804D804050000000000E02EC05D00001800000000366E01000000000C
:4014C00000000000000000000000000000000000000000000000000000000000B2130000000000000000000000000000000000000000000000000000000000000000000027
:40150000000000000000000000000000000000000000000000000000000000009C81FF1F000000000000000000000000000000000000000000000000000000000000000070
:40154000000000000000000000000000000000000000000000000000000000000000000000000000000000000000000000000000000000000000000000000000000000006B
:40158000000000000000000000000000000000000000000000000000000000000000000000000000000000000000000000000000000000000000000000000000000000002B
:4015C00000000000000000000000000000000000000000000000000000000000000000000000000000000000000000000000000000000000000000000000000000000000EB
:4016000000000000000000000000000000000000000000000000000000000000000000000000000000000000000000000000000000000000000000000000000000000000AA
:020000040003F7
:0200000480007A
:40000000014F0040065200400564004003650040410201401F03014001050140410801401E090140420A0140270B0140410C0140200D0140450E0140200F01404B14014087
:400040002A150140411601401F17014002190140421A0140231B01400240014004410140094201400243014005440140114501400B460140044801400E490140064C0140F3
:40008000094D014007500140015101400A4B0810091410991131606661CA830F890F8B0F8D0F8F0F850F870F8B0F4060410549FF4AFF4BFF4DA04F0450185A045F0160408F
:4000C00062C06440654066C068C06AC06CC06EC089028D088E02920197039A0E9B0CA608AA04B008B104B202B301B401B508B604B702BE04C020C105C5D5C721C833C9FFD4
:40010000CAFFCBFFCDAFCE0FCF04D018D280D407D804D904DA04DB04DF01E040E2C0E440E540E6C0E8C0EAC0ECC0EEC002020A44102819041A061B11205022503028385083
:400140004204482049014A024E024F205008520259055AA072408A01C001C20AC406CC06CE0CD004D238D60FEE08AF014060410549FF4AFF4BFF4DA04F0450185A045F01A8
:40018000604062C06440654066C068C06AC06CC06EC089028D088E02920197039A0E9B0CA608AA04B004B104B202B301B401B508B608B702BE04C020C105C5D5C721C8333B
:4001C000C9FFCAFFCBFFCDAFCE0FCF04D018D280D407D804D904DA04DB04DF01E040E2C0E440E540E6C0E8C0EAC0ECC0EEC002020A44102819041A041B9220502250302804
:4002000038504204482049014A024E024F205008520259055AA07240A702C001C20AC406CC06CE0CD004D238D60F4030410249FF4AFF4BFF4DA04F0450185A045F0160407A
:4002400062C06440654066C068C06AC06CC06EC0830C87038A0E910299089E08A602AA04AE01B008B102B201B308B402B504B604B701BE10C030C102C5D0C620C751C83AE1
:40028000C9FFCAFFCBFFCDAFCE0FCF04D018D280D407D804D904DA04DB04DF01E040E2C0E440E540E6C0E8C0EAC0ECC0EEC004100F02162817401C101D091E081F402440FA
:4002C00026202722362037023E083F024010412045284F015520562857015C405E085F21774087408B028D01B201B702C040C280C4E0CCA0CEC0D066D6F0E008406041056F
:4003000049FF4AFF4BFF4DA04F0450185A045F01604062C06440654066C068C06AC06CC06EC089028D088E02920197039A0E9B0CA608AA04B004B104B202B301B401B508D4
:40034000B608B702BE04C020C105C5D5C721C833C9FFCAFFCBFFCDAFCE0FCF04D018D280D407D804D904DA04DB04DF01E040E2C0E440E540E6C0E8C0EAC0ECC0EEC00202CE
:400380000A44102819041A061B1220502250302838504204482049014A024E024F205008520259055AA07240AF01B210C001C20AC406CC06CE0CD004D238D60FE020380260
:4003C0003E014010410249FF4AFF4BFF4DA04F04501858045A045F01604062C06440654066C068C06AC06CC06EC0820E8303870C8E0491029908A602AA08AE01B004B102D2
:40040000B208B308B402B504B601B701BE10C010C102C5D0C620C715C83AC9FFCAFFCBFFCDAFCE0FCF04D018D280D407D804D904DA04DB04DF01E040E2C0E440E540E6C00C
:40044000E8C0EAC0ECC0EEC004010602162817401B011C811D801E28244026202722362037023E0A4001412045A04F015520562A5C405E085F2177408440C090C4E0CCA09F
:40048000CEC0D03CD6F0E0020001020206010E043001340236044030410249FF4AFF4BFF4DA04F04501858045A045C015F01604062C06440654066C068C06AC06CC06EC0B1
:4004C000830C87038A049102960E99089E08A602AE01B004B102B201B308B402B504B608B701BE10C030C102C5D0C620C751C83AC9FFCAFFCBFFCDAFCE0FCF04D018D280EF
:40050000D407D804D904DA04DB04DF01E040E2C0E440E540E6C0E8C0EAC0ECC0EEC0014003A006080D080F021620174019021BA01C011D081E482440262027223620370288
:400540003E083F02412845284F015520562857015C405E085F217740814089028C018E40C04DC2A0C4A0CCA0CEC0D066D6F0E280E6504060410549FF4AFF4BFF4DA04F0441
:4005800050185A045F01604062C06440654066C068C06AC06CC06EC089028D088E02920197039A0E9B0CA608AA04B008B104B202B301B401B508B604B702BE04C020C1058E
:4005C000C5D5C721C833C9FFCAFFCBFFCDAFCE0FCF04D018D280D407D804D904DA04DB04DF01E040E2C0E440E540E6C0E8C0EAC0ECC0EEC002020A44102819441A041B11FE
:4006000020502250302838504204482049014A024E024F205008520259055AA0724087018940C001C20AC406CC06CE0CD004D238D60FA380E0804010410249FF4AFF4BFF37
:400640004DA04F0450185A045F01604062C06440654066C068C06AC06CC06EC0820E830C87038A049102960299089E08AE01B004B102B208B308B402B504B601B701BE1057
:40068000C010C102C5D0C620C751C83AC9FFCAFFCBFFCDAFCE0FCF04D018D280D407D804D904DA04DB04DF01E040E2C0E440E540E6C0E8C0EAC0ECC0EEC0040106080F227F
:4006C00017401C211D801E88244026202722362037023E083F024001412045A04F015520560857115C405E085F21774088108A40B780C050C2A0C480CCA0CEC0D03CD6F0B4
:400700003140CC109D40A301AF01EE105380562063029D40A381AF80D460D640EE109D409E20734074028401DC01DE045620570258015D02608066018B409740980199026B
:40074000A402B102D402D607D803E004E801870288028E209E20A402A702B080B601E403E804EC0284019D409E20E610010270087401810289408C088E209D409E20A0017F
:40078000C010DC80DE20E420530167088B04D401D801E00173407F028B42B701DC01DE04E004E401E802000108010C010E0110031A031C010003000000FFFF00FF0000008C
:4007C000001F1F001400000000F9F900F9000000010000010000000000000000000000000000000000000000000000000000000000000000000000000000000000000000BA
:4008000000000000000000000000000000000000000000000000000000000000000000000000000000000000000000000000000000000000000000000000000000000000B8
:400840000000000000000000000000000000000000000000000000000000000000000000000000000000000000000000000000000000000000000000000000000000000078
:400880000000000000000000000000000000000000000000000000000000000000000000000000000000000000000000000000000000000000000000000000000000000038
:4008C00000000000000000000000000000000000000000000000000000000000000000000000000000000000000000000000000000000000000000000000000000000000F8
:0200000490006A
:0400000000004005B7
:0200000490105A
:04000000BC90ACAF55
:0200000490303A
:02000000572D7A
:0200000490402A
:4000000000000000000000000000000000000000000000000000000000000000000000000000000000000000000000000000000000000000000000000000000000000000C0
:400040000000000000000000000000000000000000000000000000000000000000000000000000000000000000000000000000000000000000000000000000000000000080
:400080000000000000000000000000000000000000000000000000000000000000000000000000000000000000000000000000000000000000000000000000000000000040
:4000C0000000000000000000000000000000000000000000000000000000000000000000000000000000000000000000000000000000000000000000000000000000000000
:0200000490501A
:0C00000000012E16106900012E216796E9
:00000001FF